{
  "_format": "hh-sol-artifact-1",
  "contractName": "Create3Deployer",
  "sourceName": "@axelar-network/axelar-gmp-sdk-solidity/contracts/deploy/Create3Deployer.sol",
  "abi": [
    {
      "inputs": [],
      "name": "AlreadyDeployed",
      "type": "error"
    },
    {
      "inputs": [],
      "name": "DeployFailed",
      "type": "error"
    },
    {
      "inputs": [],
      "name": "DeployInitFailed",
      "type": "error"
    },
    {
      "inputs": [],
      "name": "EmptyBytecode",
      "type": "error"
    },
    {
      "inputs": [],
      "name": "NativeTransferFailed",
      "type": "error"
    },
    {
      "anonymous": false,
      "inputs": [
        {
          "indexed": true,
          "internalType": "address",
          "name": "deployedAddress",
          "type": "address"
        },
        {
          "indexed": true,
          "internalType": "address",
          "name": "sender",
          "type": "address"
        },
        {
          "indexed": true,
          "internalType": "bytes32",
          "name": "salt",
          "type": "bytes32"
        },
        {
          "indexed": false,
          "internalType": "bytes32",
          "name": "bytecodeHash",
          "type": "bytes32"
        }
      ],
      "name": "Deployed",
      "type": "event"
    },
    {
      "inputs": [
        {
          "internalType": "bytes",
          "name": "bytecode",
          "type": "bytes"
        },
        {
          "internalType": "bytes32",
          "name": "salt",
          "type": "bytes32"
        }
      ],
      "name": "deploy",
      "outputs": [
        {
          "internalType": "address",
          "name": "deployedAddress_",
          "type": "address"
        }
      ],
      "stateMutability": "payable",
      "type": "function"
    },
    {
      "inputs": [
        {
          "internalType": "bytes",
          "name": "bytecode",
          "type": "bytes"
        },
        {
          "internalType": "bytes32",
          "name": "salt",
          "type": "bytes32"
        },
        {
          "internalType": "bytes",
          "name": "init",
          "type": "bytes"
        }
      ],
      "name": "deployAndInit",
      "outputs": [
        {
          "internalType": "address",
          "name": "deployedAddress_",
          "type": "address"
        }
      ],
      "stateMutability": "payable",
      "type": "function"
    },
    {
      "inputs": [
        {
          "internalType": "bytes",
          "name": "bytecode",
          "type": "bytes"
        },
        {
          "internalType": "address",
          "name": "sender",
          "type": "address"
        },
        {
          "internalType": "bytes32",
          "name": "salt",
          "type": "bytes32"
        }
      ],
      "name": "deployedAddress",
      "outputs": [
        {
          "internalType": "address",
          "name": "",
          "type": "address"
        }
      ],
      "stateMutability": "view",
      "type": "function"
    }
  ],
  "bytecode": "0x60a060405234801561000f575f80fd5b5060405161001f60208201610043565b601f1982820381018352601f90910116604052805160209190910120608052610050565b61019180610c8883390190565b608051610c1961006f5f395f81816103cc01526105310152610c195ff3fe608060405260043610610033575f3560e01c80634af63f0214610037578063c2b1041c14610073578063cf4d643214610092575b5f80fd5b61004a610045366004610896565b6100a5565b60405173ffffffffffffffffffffffffffffffffffffffff909116815260200160405180910390f35b34801561007e575f80fd5b5061004a61008d3660046108d8565b610188565b61004a6100a0366004610946565b6101e0565b604080513360208201529081018290525f9081906060016040516020818303038152906040528051906020012090506100de8482610367565b915034156101065761010673ffffffffffffffffffffffffffffffffffffffff83163461047f565b61011084826104c6565b9150823373ffffffffffffffffffffffffffffffffffffffff168373ffffffffffffffffffffffffffffffffffffffff167fd579261046780ec80c4dae1bc57abdb62c58df8af1531e63b4e8bcc08bcf46ec878051906020012060405161017991815260200190565b60405180910390a45092915050565b6040805173ffffffffffffffffffffffffffffffffffffffff841660208201529081018290525f9081906060016040516020818303038152906040528051906020012090506101d78582610367565b95945050505050565b604080513360208201529081018490525f9081906060016040516020818303038152906040528051906020012090506102198682610367565b915034156102415761024173ffffffffffffffffffffffffffffffffffffffff83163461047f565b61024b86826104c6565b9150843373ffffffffffffffffffffffffffffffffffffffff168373ffffffffffffffffffffffffffffffffffffffff167fd579261046780ec80c4dae1bc57abdb62c58df8af1531e63b4e8bcc08bcf46ec89805190602001206040516102b491815260200190565b60405180910390a45f8273ffffffffffffffffffffffffffffffffffffffff1685856040516102e49291906109d9565b5f604051808303815f865af19150503d805f811461031d576040519150601f19603f3d011682016040523d82523d5f602084013e610322565b606091505b505090508061035d576040517f139c636700000000000000000000000000000000000000000000000000000000815260040160405180910390fd5b5050949350505050565b604080517fff000000000000000000000000000000000000000000000000000000000000006020808301919091527fffffffffffffffffffffffffffffffffffffffff00000000000000000000000030606090811b82166021850152603584018690527f0000000000000000000000000000000000000000000000000000000000000000605580860191909152855180860390910181526075850186528051908401207fd6940000000000000000000000000000000000000000000000000000000000006095860152901b1660978301527f010000000000000000000000000000000000000000000000000000000000000060ab8301528251808303608c01815260ac90920190925280519101205f905b9392505050565b5f805f805f85875af19050806104c1576040517ff4b3b1bc00000000000000000000000000000000000000000000000000000000815260040160405180910390fd5b505050565b5f6104788383604080517fff000000000000000000000000000000000000000000000000000000000000006020808301919091527fffffffffffffffffffffffffffffffffffffffff00000000000000000000000030606090811b82166021850152603584018690527f0000000000000000000000000000000000000000000000000000000000000000605580860191909152855180860390910181526075850186528051908401207fd6940000000000000000000000000000000000000000000000000000000000006095860152901b1660978301527f010000000000000000000000000000000000000000000000000000000000000060ab8301528251808303608c01815260ac909201909252805191012082515f03610614576040517f21744a5900000000000000000000000000000000000000000000000000000000815260040160405180910390fd5b6106338173ffffffffffffffffffffffffffffffffffffffff16610769565b1561066a576040517fa6ef0ba100000000000000000000000000000000000000000000000000000000815260040160405180910390fd5b5f82604051610678906107b5565b8190604051809103905ff5905080158015610695573d5f803e3d5ffd5b50905073ffffffffffffffffffffffffffffffffffffffff81166106e5576040517fb4f5411100000000000000000000000000000000000000000000000000000000815260040160405180910390fd5b6040517e77436000000000000000000000000000000000000000000000000000000000815273ffffffffffffffffffffffffffffffffffffffff82169062774360906107359087906004016109e8565b5f604051808303815f87803b15801561074c575f80fd5b505af115801561075e573d5f803e3d5ffd5b505050505092915050565b5f73ffffffffffffffffffffffffffffffffffffffff82163f801580159061047857507fc5d2460186f7233c927e7db2dcc703c0e500b653ca82273b7bfad8045d85a470141592915050565b61019180610a5383390190565b7f4e487b71000000000000000000000000000000000000000000000000000000005f52604160045260245ffd5b5f82601f8301126107fe575f80fd5b813567ffffffffffffffff80821115610819576108196107c2565b604051601f83017fffffffffffffffffffffffffffffffffffffffffffffffffffffffffffffffe0908116603f0116810190828211818310171561085f5761085f6107c2565b81604052838152866020858801011115610877575f80fd5b836020870160208301375f602085830101528094505050505092915050565b5f80604083850312156108a7575f80fd5b823567ffffffffffffffff8111156108bd575f80fd5b6108c9858286016107ef565b95602094909401359450505050565b5f805f606084860312156108ea575f80fd5b833567ffffffffffffffff811115610900575f80fd5b61090c868287016107ef565b935050602084013573ffffffffffffffffffffffffffffffffffffffff81168114610935575f80fd5b929592945050506040919091013590565b5f805f8060608587031215610959575f80fd5b843567ffffffffffffffff80821115610970575f80fd5b61097c888389016107ef565b9550602087013594506040870135915080821115610998575f80fd5b818701915087601f8301126109ab575f80fd5b8135818111156109b9575f80fd5b8860208285010111156109ca575f80fd5b95989497505060200194505050565b818382375f9101908152919050565b5f602080835283518060208501525f5b81811015610a14578581018301518582016040015282016109f8565b505f6040828601015260407fffffffffffffffffffffffffffffffffffffffffffffffffffffffffffffffe0601f830116850101925050509291505056fe608060405234801561000f575f80fd5b506101748061001d5f395ff3fe60806040526004361061001c575f3560e01c806277436014610020575b5f80fd5b61003361002e366004610075565b610035565b005b8051602082015ff0610045575f80fd5b50565b7f4e487b71000000000000000000000000000000000000000000000000000000005f52604160045260245ffd5b5f60208284031215610085575f80fd5b813567ffffffffffffffff8082111561009c575f80fd5b818401915084601f8301126100af575f80fd5b8135818111156100c1576100c1610048565b604051601f82017fffffffffffffffffffffffffffffffffffffffffffffffffffffffffffffffe0908116603f0116810190838211818310171561010757610107610048565b8160405282815287602084870101111561011f575f80fd5b826020860160208301375f92810160200192909252509594505050505056fea264697066735822122044fc33cc7b0f7543122ceae54ec9d82b21f41ae997d9848e9fd84a945d7d858a64736f6c63430008180033a26469706673582212207bbd14eee0a1913c1c61e25ef3ef73d344f144b6dda65ea1ed43caf50324845b64736f6c63430008180033608060405234801561000f575f80fd5b506101748061001d5f395ff3fe60806040526004361061001c575f3560e01c806277436014610020575b5f80fd5b61003361002e366004610075565b610035565b005b8051602082015ff0610045575f80fd5b50565b7f4e487b71000000000000000000000000000000000000000000000000000000005f52604160045260245ffd5b5f60208284031215610085575f80fd5b813567ffffffffffffffff8082111561009c575f80fd5b818401915084601f8301126100af575f80fd5b8135818111156100c1576100c1610048565b604051601f82017fffffffffffffffffffffffffffffffffffffffffffffffffffffffffffffffe0908116603f0116810190838211818310171561010757610107610048565b8160405282815287602084870101111561011f575f80fd5b826020860160208301375f92810160200192909252509594505050505056fea264697066735822122044fc33cc7b0f7543122ceae54ec9d82b21f41ae997d9848e9fd84a945d7d858a64736f6c63430008180033",
  "linkReferences": {},
  "deployedLinkReferences": {}
}