{
  "_format": "hh-sol-artifact-1",
  "contractName": "Create3Deployer",
  "sourceName": "@axelar-network/axelar-gmp-sdk-solidity/contracts/deploy/Create3Deployer.sol",
  "abi": [
    {
      "inputs": [],
      "name": "AlreadyDeployed",
      "type": "error"
    },
    {
      "inputs": [],
      "name": "DeployFailed",
      "type": "error"
    },
    {
      "inputs": [],
      "name": "DeployInitFailed",
      "type": "error"
    },
    {
      "inputs": [],
      "name": "EmptyBytecode",
      "type": "error"
    },
    {
      "inputs": [],
      "name": "NativeTransferFailed",
      "type": "error"
    },
    {
      "anonymous": false,
      "inputs": [
        {
          "indexed": true,
          "internalType": "address",
          "name": "deployedAddress",
          "type": "address"
        },
        {
          "indexed": true,
          "internalType": "address",
          "name": "sender",
          "type": "address"
        },
        {
          "indexed": true,
          "internalType": "bytes32",
          "name": "salt",
          "type": "bytes32"
        },
        {
          "indexed": false,
          "internalType": "bytes32",
          "name": "bytecodeHash",
          "type": "bytes32"
        }
      ],
      "name": "Deployed",
      "type": "event"
    },
    {
      "inputs": [
        {
          "internalType": "bytes",
          "name": "bytecode",
          "type": "bytes"
        },
        {
          "internalType": "bytes32",
          "name": "salt",
          "type": "bytes32"
        }
      ],
      "name": "deploy",
      "outputs": [
        {
          "internalType": "address",
          "name": "deployedAddress_",
          "type": "address"
        }
      ],
      "stateMutability": "payable",
      "type": "function"
    },
    {
      "inputs": [
        {
          "internalType": "bytes",
          "name": "bytecode",
          "type": "bytes"
        },
        {
          "internalType": "bytes32",
          "name": "salt",
          "type": "bytes32"
        },
        {
          "internalType": "bytes",
          "name": "init",
          "type": "bytes"
        }
      ],
      "name": "deployAndInit",
      "outputs": [
        {
          "internalType": "address",
          "name": "deployedAddress_",
          "type": "address"
        }
      ],
      "stateMutability": "payable",
      "type": "function"
    },
    {
      "inputs": [
        {
          "internalType": "bytes",
          "name": "bytecode",
          "type": "bytes"
        },
        {
          "internalType": "address",
          "name": "sender",
          "type": "address"
        },
        {
          "internalType": "bytes32",
          "name": "salt",
          "type": "bytes32"
        }
      ],
      "name": "deployedAddress",
      "outputs": [
        {
          "internalType": "address",
          "name": "",
          "type": "address"
        }
      ],
      "stateMutability": "view",
      "type": "function"
    }
  ],
  "bytecode": "0x60a060405234801561001057600080fd5b5060405161002060208201610044565b601f1982820381018352601f90910116604052805160209190910120608052610051565b6101a080610c9a83390190565b608051610c2761007360003960008181610386015261049c0152610c276000f3fe6080604052600436106100345760003560e01c80634af63f0214610039578063c2b1041c14610075578063cf4d643214610095575b600080fd5b61004c610047366004610882565b6100a8565b60405173ffffffffffffffffffffffffffffffffffffffff909116815260200160405180910390f35b34801561008157600080fd5b5061004c6100903660046108c7565b61015a565b61004c6100a336600461093a565b6101b3565b6040805133602082015290810182905260009081906060016040516020818303038152906040528051906020012090506100e2848261030e565b9150823373ffffffffffffffffffffffffffffffffffffffff168373ffffffffffffffffffffffffffffffffffffffff167fd579261046780ec80c4dae1bc57abdb62c58df8af1531e63b4e8bcc08bcf46ec878051906020012060405161014b91815260200190565b60405180910390a45092915050565b6040805173ffffffffffffffffffffffffffffffffffffffff8416602082015290810182905260009081906060016040516020818303038152906040528051906020012090506101aa8582610321565b95945050505050565b6040805133602082015290810184905260009081906060016040516020818303038152906040528051906020012090506101ed868261030e565b9150843373ffffffffffffffffffffffffffffffffffffffff168373ffffffffffffffffffffffffffffffffffffffff167fd579261046780ec80c4dae1bc57abdb62c58df8af1531e63b4e8bcc08bcf46ec898051906020012060405161025691815260200190565b60405180910390a460008273ffffffffffffffffffffffffffffffffffffffff1685856040516102879291906109d5565b6000604051808303816000865af19150503d80600081146102c4576040519150601f19603f3d011682016040523d82523d6000602084013e6102c9565b606091505b5050905080610304576040517f139c636700000000000000000000000000000000000000000000000000000000815260040160405180910390fd5b5050949350505050565b600061031a8383610437565b9392505050565b604080517fff000000000000000000000000000000000000000000000000000000000000006020808301919091527fffffffffffffffffffffffffffffffffffffffff00000000000000000000000030606090811b82166021850152603584018690527f0000000000000000000000000000000000000000000000000000000000000000605580860191909152855180860390910181526075850186528051908401207fd6940000000000000000000000000000000000000000000000000000000000006095860152901b1660978301527f010000000000000000000000000000000000000000000000000000000000000060ab8301528251808303608c01815260ac909201909252805191012060009061031a565b604080517fff000000000000000000000000000000000000000000000000000000000000006020808301919091527fffffffffffffffffffffffffffffffffffffffff00000000000000000000000030606090811b82166021850152603584018690527f0000000000000000000000000000000000000000000000000000000000000000605580860191909152855180860390910181526075850186528051908401207fd6940000000000000000000000000000000000000000000000000000000000006095860152901b1660978301527f010000000000000000000000000000000000000000000000000000000000000060ab8301528251808303608c01815260ac90920190925280519101208251600003610580576040517f21744a5900000000000000000000000000000000000000000000000000000000815260040160405180910390fd5b61059f8173ffffffffffffffffffffffffffffffffffffffff16610704565b156105d6576040517fa6ef0ba100000000000000000000000000000000000000000000000000000000815260040160405180910390fd5b34156105fc576105fc73ffffffffffffffffffffffffffffffffffffffff821634610751565b60008260405161060b9061079b565b8190604051809103906000f590508015801561062b573d6000803e3d6000fd5b50905073ffffffffffffffffffffffffffffffffffffffff811661067b576040517fb4f5411100000000000000000000000000000000000000000000000000000000815260040160405180910390fd5b6040517e77436000000000000000000000000000000000000000000000000000000000815273ffffffffffffffffffffffffffffffffffffffff82169062774360906106cb9087906004016109e5565b600060405180830381600087803b1580156106e557600080fd5b505af11580156106f9573d6000803e3d6000fd5b505050505092915050565b600073ffffffffffffffffffffffffffffffffffffffff82163f801580159061031a57507fc5d2460186f7233c927e7db2dcc703c0e500b653ca82273b7bfad8045d85a470141592915050565b600080600080600085875af1905080610796576040517ff4b3b1bc00000000000000000000000000000000000000000000000000000000815260040160405180910390fd5b505050565b6101a080610a5283390190565b7f4e487b7100000000000000000000000000000000000000000000000000000000600052604160045260246000fd5b600082601f8301126107e857600080fd5b813567ffffffffffffffff80821115610803576108036107a8565b604051601f83017fffffffffffffffffffffffffffffffffffffffffffffffffffffffffffffffe0908116603f01168101908282118183101715610849576108496107a8565b8160405283815286602085880101111561086257600080fd5b836020870160208301376000602085830101528094505050505092915050565b6000806040838503121561089557600080fd5b823567ffffffffffffffff8111156108ac57600080fd5b6108b8858286016107d7565b95602094909401359450505050565b6000806000606084860312156108dc57600080fd5b833567ffffffffffffffff8111156108f357600080fd5b6108ff868287016107d7565b935050602084013573ffffffffffffffffffffffffffffffffffffffff8116811461092957600080fd5b929592945050506040919091013590565b6000806000806060858703121561095057600080fd5b843567ffffffffffffffff8082111561096857600080fd5b610974888389016107d7565b955060208701359450604087013591508082111561099157600080fd5b818701915087601f8301126109a557600080fd5b8135818111156109b457600080fd5b8860208285010111156109c657600080fd5b95989497505060200194505050565b8183823760009101908152919050565b600060208083528351808285015260005b81811015610a12578581018301518582016040015282016109f6565b5060006040828601015260407fffffffffffffffffffffffffffffffffffffffffffffffffffffffffffffffe0601f830116850101925050509291505056fe608060405234801561001057600080fd5b50610180806100206000396000f3fe60806040526004361061001d5760003560e01c806277436014610022575b600080fd5b61003561003036600461007b565b610037565b005b8051602082016000f061004957600080fd5b50565b7f4e487b7100000000000000000000000000000000000000000000000000000000600052604160045260246000fd5b60006020828403121561008d57600080fd5b813567ffffffffffffffff808211156100a557600080fd5b818401915084601f8301126100b957600080fd5b8135818111156100cb576100cb61004c565b604051601f82017fffffffffffffffffffffffffffffffffffffffffffffffffffffffffffffffe0908116603f011681019083821181831017156101115761011161004c565b8160405282815287602084870101111561012a57600080fd5b82602086016020830137600092810160200192909252509594505050505056fea26469706673582212204efb49bab1f37b87314452d541351c2dfc4006b521e21c65c5bd081030d2389f64736f6c63430008150033a2646970667358221220279377ec8493a0b49308f705632e7e7edd2b5bef742dfc0048c2a1997f426f4464736f6c63430008150033608060405234801561001057600080fd5b50610180806100206000396000f3fe60806040526004361061001d5760003560e01c806277436014610022575b600080fd5b61003561003036600461007b565b610037565b005b8051602082016000f061004957600080fd5b50565b7f4e487b7100000000000000000000000000000000000000000000000000000000600052604160045260246000fd5b60006020828403121561008d57600080fd5b813567ffffffffffffffff808211156100a557600080fd5b818401915084601f8301126100b957600080fd5b8135818111156100cb576100cb61004c565b604051601f82017fffffffffffffffffffffffffffffffffffffffffffffffffffffffffffffffe0908116603f011681019083821181831017156101115761011161004c565b8160405282815287602084870101111561012a57600080fd5b82602086016020830137600092810160200192909252509594505050505056fea26469706673582212204efb49bab1f37b87314452d541351c2dfc4006b521e21c65c5bd081030d2389f64736f6c63430008150033",
  "linkReferences": {},
  "deployedLinkReferences": {}
}