{
  "_format": "hh-sol-artifact-1",
  "contractName": "Create3Deployer",
  "sourceName": "contracts/axelarnetwork/axelar-gmp-sdk-solidity/deploy/Create3Deployer.sol",
  "abi": [
    {
      "inputs": [],
      "name": "AlreadyDeployed",
      "type": "error"
    },
    {
      "inputs": [],
      "name": "DeployFailed",
      "type": "error"
    },
    {
      "inputs": [],
      "name": "EmptyBytecode",
      "type": "error"
    },
    {
      "inputs": [],
      "name": "FailedInit",
      "type": "error"
    },
    {
      "anonymous": false,
      "inputs": [
        {
          "indexed": true,
          "internalType": "bytes32",
          "name": "bytecodeHash",
          "type": "bytes32"
        },
        {
          "indexed": true,
          "internalType": "bytes32",
          "name": "salt",
          "type": "bytes32"
        },
        {
          "indexed": true,
          "internalType": "address",
          "name": "deployedAddress",
          "type": "address"
        }
      ],
      "name": "Deployed",
      "type": "event"
    },
    {
      "inputs": [
        {
          "internalType": "bytes",
          "name": "bytecode",
          "type": "bytes"
        },
        {
          "internalType": "bytes32",
          "name": "salt",
          "type": "bytes32"
        }
      ],
      "name": "deploy",
      "outputs": [
        {
          "internalType": "address",
          "name": "deployedAddress_",
          "type": "address"
        }
      ],
      "stateMutability": "nonpayable",
      "type": "function"
    },
    {
      "inputs": [
        {
          "internalType": "bytes",
          "name": "bytecode",
          "type": "bytes"
        },
        {
          "internalType": "bytes32",
          "name": "salt",
          "type": "bytes32"
        },
        {
          "internalType": "bytes",
          "name": "init",
          "type": "bytes"
        }
      ],
      "name": "deployAndInit",
      "outputs": [
        {
          "internalType": "address",
          "name": "deployedAddress_",
          "type": "address"
        }
      ],
      "stateMutability": "nonpayable",
      "type": "function"
    },
    {
      "inputs": [
        {
          "internalType": "address",
          "name": "sender",
          "type": "address"
        },
        {
          "internalType": "bytes32",
          "name": "salt",
          "type": "bytes32"
        }
      ],
      "name": "deployedAddress",
      "outputs": [
        {
          "internalType": "address",
          "name": "",
          "type": "address"
        }
      ],
      "stateMutability": "view",
      "type": "function"
    }
  ],
  "bytecode": "0x608060405234801561001057600080fd5b50610ae4806100206000396000f3fe608060405234801561001057600080fd5b50600436106100415760003560e01c80634af63f0214610046578063687d052b14610082578063cf4d643214610095575b600080fd5b6100596100543660046106bf565b6100a8565b60405173ffffffffffffffffffffffffffffffffffffffff909116815260200160405180910390f35b61005961009036600461070b565b61017a565b6100596100a336600461077f565b6101d2565b6040805133602082015290810182905260009081906060016040516020818303038152906040528051906020012090506101188186868080601f01602080910402602001604051908101604052809392919081815260200183838082843760009201919091525061030892505050565b91508173ffffffffffffffffffffffffffffffffffffffff1683868660405161014292919061087f565b604051908190038120907f27b8e3132afa95254770e1c1d214eafde52bc47d1b6e1f5dfcbb380c3ca3f53290600090a4509392505050565b6040805173ffffffffffffffffffffffffffffffffffffffff8416602082015290810182905260009081906060016040516020818303038152906040528051906020012090506101ca30826104af565b949350505050565b60408051336020820152908101849052600090819060600160405160208183030381529060405280519060200120905061020c8187610308565b915060008273ffffffffffffffffffffffffffffffffffffffff16858560405161023792919061087f565b6000604051808303816000865af19150503d8060008114610274576040519150601f19603f3d011682016040523d82523d6000602084013e610279565b606091505b50509050806102b4576040517f4f77232300000000000000000000000000000000000000000000000000000000815260040160405180910390fd5b8651602088012060405173ffffffffffffffffffffffffffffffffffffffff85169188917f27b8e3132afa95254770e1c1d214eafde52bc47d1b6e1f5dfcbb380c3ca3f53290600090a45050949350505050565b600061031430846104af565b90506103358173ffffffffffffffffffffffffffffffffffffffff16610619565b1561036c576040517fa6ef0ba100000000000000000000000000000000000000000000000000000000815260040160405180910390fd5b81516000036103a7576040517f21744a5900000000000000000000000000000000000000000000000000000000815260040160405180910390fd5b6000836040516103b690610669565b8190604051809103906000f59050801580156103d6573d6000803e3d6000fd5b50905073ffffffffffffffffffffffffffffffffffffffff8116610426576040517fb4f5411100000000000000000000000000000000000000000000000000000000815260040160405180910390fd5b6040517e77436000000000000000000000000000000000000000000000000000000000815273ffffffffffffffffffffffffffffffffffffffff821690627743609061047690869060040161088f565b600060405180830381600087803b15801561049057600080fd5b505af11580156104a4573d6000803e3d6000fd5b505050505092915050565b6000808383604051806020016104c490610669565b6020820181038252601f19601f820116604052508051906020012060405160200161054f939291907fff00000000000000000000000000000000000000000000000000000000000000815260609390931b7fffffffffffffffffffffffffffffffffffffffff0000000000000000000000001660018401526015830191909152603582015260550190565b604080517fffffffffffffffffffffffffffffffffffffffffffffffffffffffffffffffe081840301815282825280516020918201207fd6940000000000000000000000000000000000000000000000000000000000008285015260601b7fffffffffffffffffffffffffffffffffffffffff0000000000000000000000001660228401527f010000000000000000000000000000000000000000000000000000000000000060368401528151601781850301815260379093019091528151910120949350505050565b600073ffffffffffffffffffffffffffffffffffffffff82163f801580159061066257507fc5d2460186f7233c927e7db2dcc703c0e500b653ca82273b7bfad8045d85a4708114155b9392505050565b6101b3806108fc83390190565b60008083601f84011261068857600080fd5b50813567ffffffffffffffff8111156106a057600080fd5b6020830191508360208285010111156106b857600080fd5b9250929050565b6000806000604084860312156106d457600080fd5b833567ffffffffffffffff8111156106eb57600080fd5b6106f786828701610676565b909790965060209590950135949350505050565b6000806040838503121561071e57600080fd5b823573ffffffffffffffffffffffffffffffffffffffff8116811461074257600080fd5b946020939093013593505050565b7f4e487b7100000000000000000000000000000000000000000000000000000000600052604160045260246000fd5b6000806000806060858703121561079557600080fd5b843567ffffffffffffffff808211156107ad57600080fd5b818701915087601f8301126107c157600080fd5b8135818111156107d3576107d3610750565b604051601f82017fffffffffffffffffffffffffffffffffffffffffffffffffffffffffffffffe0908116603f0116810190838211818310171561081957610819610750565b816040528281528a602084870101111561083257600080fd5b8260208601602083013760006020848301015280985050505060208701359450604087013591508082111561086657600080fd5b5061087387828801610676565b95989497509550505050565b8183823760009101908152919050565b600060208083528351808285015260005b818110156108bc578581018301518582016040015282016108a0565b5060006040828601015260407fffffffffffffffffffffffffffffffffffffffffffffffffffffffffffffffe0601f830116850101925050509291505056fe608060405234801561001057600080fd5b50610193806100206000396000f3fe608060405234801561001057600080fd5b506004361061002a5760003560e01c80627743601461002f575b600080fd5b61004261003d36600461008e565b610044565b005b60008151602083016000f090508061005b57600080fd5b5050565b7f4e487b7100000000000000000000000000000000000000000000000000000000600052604160045260246000fd5b6000602082840312156100a057600080fd5b813567ffffffffffffffff808211156100b857600080fd5b818401915084601f8301126100cc57600080fd5b8135818111156100de576100de61005f565b604051601f82017fffffffffffffffffffffffffffffffffffffffffffffffffffffffffffffffe0908116603f011681019083821181831017156101245761012461005f565b8160405282815287602084870101111561013d57600080fd5b82602086016020830137600092810160200192909252509594505050505056fea2646970667358221220ecc24032bc744eda4ba2e0daa3966b0d4340695f92c197d5884cd2796a52f5b264736f6c63430008150033a264697066735822122023c3a4c4197dc10a727952f2567a93f2b5282644fea241ff9323f2827bf8ccdf64736f6c63430008150033",
  "linkReferences": {},
  "deployedLinkReferences": {}
}