{
  "_format": "hh-sol-artifact-1",
  "contractName": "SKYBITCREATE3Factory",
  "sourceName": "contracts/SKYBITCREATE3Factory.sol",
  "abi": [
    {
      "inputs": [
        {
          "internalType": "bytes32",
          "name": "salt",
          "type": "bytes32"
        },
        {
          "internalType": "bytes",
          "name": "creationCode",
          "type": "bytes"
        }
      ],
      "name": "deploy",
      "outputs": [
        {
          "internalType": "address",
          "name": "deployed",
          "type": "address"
        }
      ],
      "stateMutability": "payable",
      "type": "function"
    },
    {
      "inputs": [
        {
          "internalType": "address",
          "name": "deployer",
          "type": "address"
        },
        {
          "internalType": "bytes32",
          "name": "salt",
          "type": "bytes32"
        }
      ],
      "name": "getDeployed",
      "outputs": [
        {
          "internalType": "address",
          "name": "deployed",
          "type": "address"
        }
      ],
      "stateMutability": "view",
      "type": "function"
    }
  ],
  "bytecode": "0x608060405234801561001057600080fd5b506103a1806100206000396000f3fe6080604052600436106100295760003560e01c806350f1c4641461002e578063cdcb760a14610077575b600080fd5b34801561003a57600080fd5b5061004e61004936600461021e565b61008a565b60405173ffffffffffffffffffffffffffffffffffffffff909116815260200160405180910390f35b61004e610085366004610292565b6100ee565b6040517fffffffffffffffffffffffffffffffffffffffff000000000000000000000000606084901b166020820152603481018290526000906054016040516020818303038152906040528051906020012091506100e78261014c565b9392505050565b6040517fffffffffffffffffffffffffffffffffffffffff0000000000000000000000003360601b166020820152603481018390526000906054016040516020818303038152906040528051906020012092506100e78383346101a4565b60006040513060005260ff600b53826020527f21c35dbe1b344a2488cf3321d6ce542f8e9f305544ff09e4993a62319a497c1f6040526055600b20601452806040525061d694600052600160345350506017601e2090565b60006f67363d3d37363d34f03d5260086018f3600052836010806000f5806101d45763301164256000526004601cfd5b8060145261d69460005260016034536017601e20915060008085516020870186855af1610209576319b991a86000526004601cfd5b50803b6100e7576319b991a86000526004601cfd5b6000806040838503121561023157600080fd5b823573ffffffffffffffffffffffffffffffffffffffff8116811461025557600080fd5b946020939093013593505050565b7f4e487b7100000000000000000000000000000000000000000000000000000000600052604160045260246000fd5b600080604083850312156102a557600080fd5b82359150602083013567ffffffffffffffff808211156102c457600080fd5b818501915085601f8301126102d857600080fd5b8135818111156102ea576102ea610263565b604051601f82017fffffffffffffffffffffffffffffffffffffffffffffffffffffffffffffffe0908116603f0116810190838211818310171561033057610330610263565b8160405282815288602084870101111561034957600080fd5b826020860160208301376000602084830101528095505050505050925092905056fea2646970667358221220adb8d45e268d3aa3c6c1296cda4c74d7d549bf1d967411a667c87fd2488d9aad64736f6c63430008150033",
  "linkReferences": {},
  "deployedLinkReferences": {}
}