{
  "_format": "hh-sol-artifact-1",
  "contractName": "TESTERC20",
  "sourceName": "contracts/TESTERC20.sol",
  "abi": [
    {
      "inputs": [
        {
          "internalType": "string",
          "name": "name",
          "type": "string"
        },
        {
          "internalType": "string",
          "name": "symbol",
          "type": "string"
        },
        {
          "internalType": "uint256",
          "name": "initialSupply",
          "type": "uint256"
        },
        {
          "internalType": "address[]",
          "name": "initialHolders",
          "type": "address[]"
        },
        {
          "components": [
            {
              "internalType": "uint256",
              "name": "x",
              "type": "uint256"
            },
            {
              "internalType": "uint256",
              "name": "y",
              "type": "uint256"
            }
          ],
          "internalType": "struct Point",
          "name": "_point",
          "type": "tuple"
        },
        {
          "internalType": "bytes",
          "name": "_b",
          "type": "bytes"
        }
      ],
      "stateMutability": "nonpayable",
      "type": "constructor"
    },
    {
      "inputs": [],
      "name": "InvalidShortString",
      "type": "error"
    },
    {
      "inputs": [
        {
          "internalType": "string",
          "name": "str",
          "type": "string"
        }
      ],
      "name": "StringTooLong",
      "type": "error"
    },
    {
      "anonymous": false,
      "inputs": [
        {
          "indexed": true,
          "internalType": "address",
          "name": "owner",
          "type": "address"
        },
        {
          "indexed": true,
          "internalType": "address",
          "name": "spender",
          "type": "address"
        },
        {
          "indexed": false,
          "internalType": "uint256",
          "name": "value",
          "type": "uint256"
        }
      ],
      "name": "Approval",
      "type": "event"
    },
    {
      "anonymous": false,
      "inputs": [],
      "name": "EIP712DomainChanged",
      "type": "event"
    },
    {
      "anonymous": false,
      "inputs": [
        {
          "indexed": true,
          "internalType": "bytes32",
          "name": "role",
          "type": "bytes32"
        },
        {
          "indexed": true,
          "internalType": "bytes32",
          "name": "previousAdminRole",
          "type": "bytes32"
        },
        {
          "indexed": true,
          "internalType": "bytes32",
          "name": "newAdminRole",
          "type": "bytes32"
        }
      ],
      "name": "RoleAdminChanged",
      "type": "event"
    },
    {
      "anonymous": false,
      "inputs": [
        {
          "indexed": true,
          "internalType": "bytes32",
          "name": "role",
          "type": "bytes32"
        },
        {
          "indexed": true,
          "internalType": "address",
          "name": "account",
          "type": "address"
        },
        {
          "indexed": true,
          "internalType": "address",
          "name": "sender",
          "type": "address"
        }
      ],
      "name": "RoleGranted",
      "type": "event"
    },
    {
      "anonymous": false,
      "inputs": [
        {
          "indexed": true,
          "internalType": "bytes32",
          "name": "role",
          "type": "bytes32"
        },
        {
          "indexed": true,
          "internalType": "address",
          "name": "account",
          "type": "address"
        },
        {
          "indexed": true,
          "internalType": "address",
          "name": "sender",
          "type": "address"
        }
      ],
      "name": "RoleRevoked",
      "type": "event"
    },
    {
      "anonymous": false,
      "inputs": [
        {
          "indexed": true,
          "internalType": "address",
          "name": "from",
          "type": "address"
        },
        {
          "indexed": true,
          "internalType": "address",
          "name": "to",
          "type": "address"
        },
        {
          "indexed": false,
          "internalType": "uint256",
          "name": "value",
          "type": "uint256"
        }
      ],
      "name": "Transfer",
      "type": "event"
    },
    {
      "inputs": [],
      "name": "DEFAULT_ADMIN_ROLE",
      "outputs": [
        {
          "internalType": "bytes32",
          "name": "",
          "type": "bytes32"
        }
      ],
      "stateMutability": "view",
      "type": "function"
    },
    {
      "inputs": [],
      "name": "DOMAIN_SEPARATOR",
      "outputs": [
        {
          "internalType": "bytes32",
          "name": "",
          "type": "bytes32"
        }
      ],
      "stateMutability": "view",
      "type": "function"
    },
    {
      "inputs": [
        {
          "internalType": "address",
          "name": "owner",
          "type": "address"
        },
        {
          "internalType": "address",
          "name": "spender",
          "type": "address"
        }
      ],
      "name": "allowance",
      "outputs": [
        {
          "internalType": "uint256",
          "name": "",
          "type": "uint256"
        }
      ],
      "stateMutability": "view",
      "type": "function"
    },
    {
      "inputs": [
        {
          "internalType": "address",
          "name": "spender",
          "type": "address"
        },
        {
          "internalType": "uint256",
          "name": "amount",
          "type": "uint256"
        }
      ],
      "name": "approve",
      "outputs": [
        {
          "internalType": "bool",
          "name": "",
          "type": "bool"
        }
      ],
      "stateMutability": "nonpayable",
      "type": "function"
    },
    {
      "inputs": [],
      "name": "b",
      "outputs": [
        {
          "internalType": "bytes",
          "name": "",
          "type": "bytes"
        }
      ],
      "stateMutability": "view",
      "type": "function"
    },
    {
      "inputs": [
        {
          "internalType": "address",
          "name": "account",
          "type": "address"
        }
      ],
      "name": "balanceOf",
      "outputs": [
        {
          "internalType": "uint256",
          "name": "",
          "type": "uint256"
        }
      ],
      "stateMutability": "view",
      "type": "function"
    },
    {
      "inputs": [],
      "name": "decimals",
      "outputs": [
        {
          "internalType": "uint8",
          "name": "",
          "type": "uint8"
        }
      ],
      "stateMutability": "view",
      "type": "function"
    },
    {
      "inputs": [
        {
          "internalType": "address",
          "name": "spender",
          "type": "address"
        },
        {
          "internalType": "uint256",
          "name": "subtractedValue",
          "type": "uint256"
        }
      ],
      "name": "decreaseAllowance",
      "outputs": [
        {
          "internalType": "bool",
          "name": "",
          "type": "bool"
        }
      ],
      "stateMutability": "nonpayable",
      "type": "function"
    },
    {
      "inputs": [],
      "name": "eip712Domain",
      "outputs": [
        {
          "internalType": "bytes1",
          "name": "fields",
          "type": "bytes1"
        },
        {
          "internalType": "string",
          "name": "name",
          "type": "string"
        },
        {
          "internalType": "string",
          "name": "version",
          "type": "string"
        },
        {
          "internalType": "uint256",
          "name": "chainId",
          "type": "uint256"
        },
        {
          "internalType": "address",
          "name": "verifyingContract",
          "type": "address"
        },
        {
          "internalType": "bytes32",
          "name": "salt",
          "type": "bytes32"
        },
        {
          "internalType": "uint256[]",
          "name": "extensions",
          "type": "uint256[]"
        }
      ],
      "stateMutability": "view",
      "type": "function"
    },
    {
      "inputs": [
        {
          "internalType": "bytes32",
          "name": "role",
          "type": "bytes32"
        }
      ],
      "name": "getRoleAdmin",
      "outputs": [
        {
          "internalType": "bytes32",
          "name": "",
          "type": "bytes32"
        }
      ],
      "stateMutability": "view",
      "type": "function"
    },
    {
      "inputs": [
        {
          "internalType": "bytes32",
          "name": "role",
          "type": "bytes32"
        },
        {
          "internalType": "address",
          "name": "account",
          "type": "address"
        }
      ],
      "name": "grantRole",
      "outputs": [],
      "stateMutability": "nonpayable",
      "type": "function"
    },
    {
      "inputs": [
        {
          "internalType": "bytes32",
          "name": "role",
          "type": "bytes32"
        },
        {
          "internalType": "address",
          "name": "account",
          "type": "address"
        }
      ],
      "name": "hasRole",
      "outputs": [
        {
          "internalType": "bool",
          "name": "",
          "type": "bool"
        }
      ],
      "stateMutability": "view",
      "type": "function"
    },
    {
      "inputs": [
        {
          "internalType": "address",
          "name": "spender",
          "type": "address"
        },
        {
          "internalType": "uint256",
          "name": "addedValue",
          "type": "uint256"
        }
      ],
      "name": "increaseAllowance",
      "outputs": [
        {
          "internalType": "bool",
          "name": "",
          "type": "bool"
        }
      ],
      "stateMutability": "nonpayable",
      "type": "function"
    },
    {
      "inputs": [],
      "name": "name",
      "outputs": [
        {
          "internalType": "string",
          "name": "",
          "type": "string"
        }
      ],
      "stateMutability": "view",
      "type": "function"
    },
    {
      "inputs": [
        {
          "internalType": "address",
          "name": "owner",
          "type": "address"
        }
      ],
      "name": "nonces",
      "outputs": [
        {
          "internalType": "uint256",
          "name": "",
          "type": "uint256"
        }
      ],
      "stateMutability": "view",
      "type": "function"
    },
    {
      "inputs": [
        {
          "internalType": "address",
          "name": "owner",
          "type": "address"
        },
        {
          "internalType": "address",
          "name": "spender",
          "type": "address"
        },
        {
          "internalType": "uint256",
          "name": "value",
          "type": "uint256"
        },
        {
          "internalType": "uint256",
          "name": "deadline",
          "type": "uint256"
        },
        {
          "internalType": "uint8",
          "name": "v",
          "type": "uint8"
        },
        {
          "internalType": "bytes32",
          "name": "r",
          "type": "bytes32"
        },
        {
          "internalType": "bytes32",
          "name": "s",
          "type": "bytes32"
        }
      ],
      "name": "permit",
      "outputs": [],
      "stateMutability": "nonpayable",
      "type": "function"
    },
    {
      "inputs": [],
      "name": "point",
      "outputs": [
        {
          "internalType": "uint256",
          "name": "x",
          "type": "uint256"
        },
        {
          "internalType": "uint256",
          "name": "y",
          "type": "uint256"
        }
      ],
      "stateMutability": "view",
      "type": "function"
    },
    {
      "inputs": [
        {
          "internalType": "bytes32",
          "name": "role",
          "type": "bytes32"
        },
        {
          "internalType": "address",
          "name": "account",
          "type": "address"
        }
      ],
      "name": "renounceRole",
      "outputs": [],
      "stateMutability": "nonpayable",
      "type": "function"
    },
    {
      "inputs": [
        {
          "internalType": "bytes32",
          "name": "role",
          "type": "bytes32"
        },
        {
          "internalType": "address",
          "name": "account",
          "type": "address"
        }
      ],
      "name": "revokeRole",
      "outputs": [],
      "stateMutability": "nonpayable",
      "type": "function"
    },
    {
      "inputs": [
        {
          "internalType": "bytes4",
          "name": "interfaceId",
          "type": "bytes4"
        }
      ],
      "name": "supportsInterface",
      "outputs": [
        {
          "internalType": "bool",
          "name": "",
          "type": "bool"
        }
      ],
      "stateMutability": "view",
      "type": "function"
    },
    {
      "inputs": [],
      "name": "symbol",
      "outputs": [
        {
          "internalType": "string",
          "name": "",
          "type": "string"
        }
      ],
      "stateMutability": "view",
      "type": "function"
    },
    {
      "inputs": [],
      "name": "totalSupply",
      "outputs": [
        {
          "internalType": "uint256",
          "name": "",
          "type": "uint256"
        }
      ],
      "stateMutability": "view",
      "type": "function"
    },
    {
      "inputs": [
        {
          "internalType": "address",
          "name": "to",
          "type": "address"
        },
        {
          "internalType": "uint256",
          "name": "amount",
          "type": "uint256"
        }
      ],
      "name": "transfer",
      "outputs": [
        {
          "internalType": "bool",
          "name": "",
          "type": "bool"
        }
      ],
      "stateMutability": "nonpayable",
      "type": "function"
    },
    {
      "inputs": [
        {
          "internalType": "address",
          "name": "from",
          "type": "address"
        },
        {
          "internalType": "address",
          "name": "to",
          "type": "address"
        },
        {
          "internalType": "uint256",
          "name": "amount",
          "type": "uint256"
        }
      ],
      "name": "transferFrom",
      "outputs": [
        {
          "internalType": "bool",
          "name": "",
          "type": "bool"
        }
      ],
      "stateMutability": "nonpayable",
      "type": "function"
    }
  ],
  "bytecode": "0x6101606040523480156200001257600080fd5b5060405162002a0b38038062002a0b833981016040819052620000359162000612565b6040805180820190915260018152603160f81b6020820152869081908188600362000061838262000775565b50600462000070828262000775565b5062000082915083905060056200024c565b61012052620000938160066200024c565b61014052815160208084019190912060e052815190820120610100524660a0526200012160e05161010051604080517f8b73c3c69bb8fe3d512ecc4cf759cc79239f7b179b0ffacaa9a75d522b39400f60208201529081019290925260608201524660808201523060a082015260009060c00160405160208183030381529060405280519060200120905090565b60805250503060c0525082516200019890849060009062000146576200014662000841565b60200260200101516064620001606200028560201b60201c565b6200016d90600a6200096a565b62000179908862000982565b6200018690600a62000982565b6200019291906200099c565b6200028a565b620001f283600181518110620001b257620001b262000841565b60200260200101516064620001cc6200028560201b60201c565b620001d990600a6200096a565b620001e5908862000982565b6200018690605a62000982565b8151600a556020820151600b55600c6200020d828262000775565b50620002406000801b846000815181106200022c576200022c62000841565b60200260200101516200035260201b60201c565b50505050505062000a2f565b60006020835110156200026c576200026483620003f6565b90506200027f565b8162000279848262000775565b5060ff90505b92915050565b601290565b6001600160a01b038216620002e65760405162461bcd60e51b815260206004820152601f60248201527f45524332303a206d696e7420746f20746865207a65726f20616464726573730060448201526064015b60405180910390fd5b8060026000828254620002fa9190620009bf565b90915550506001600160a01b038216600081815260208181526040808320805486019055518481527fddf252ad1be2c89b69c2b068fc378daa952ba7f163c4a11628f55a4df523b3ef910160405180910390a35b5050565b60008281526009602090815260408083206001600160a01b038516845290915290205460ff166200034e5760008281526009602090815260408083206001600160a01b03851684529091529020805460ff19166001179055620003b23390565b6001600160a01b0316816001600160a01b0316837f2f8788117e7eff1d82e926ec794901d17c78024a50270940304540a733656f0d60405160405180910390a45050565b600080829050601f8151111562000424578260405163305a27a960e01b8152600401620002dd9190620009d5565b8051620004318262000a0a565b179392505050565b505050565b634e487b7160e01b600052604160045260246000fd5b604051601f8201601f191681016001600160401b03811182821017156200047f576200047f6200043e565b604052919050565b60005b83811015620004a45781810151838201526020016200048a565b50506000910152565b600082601f830112620004bf57600080fd5b81516001600160401b03811115620004db57620004db6200043e565b620004f0601f8201601f191660200162000454565b8181528460208386010111156200050657600080fd5b6200051982602083016020870162000487565b949350505050565b600082601f8301126200053357600080fd5b815160206001600160401b038211156200055157620005516200043e565b8160051b6200056282820162000454565b92835284810182019282810190878511156200057d57600080fd5b83870192505b84831015620005b55782516001600160a01b0381168114620005a55760008081fd5b8252918301919083019062000583565b979650505050505050565b600060408284031215620005d357600080fd5b604080519081016001600160401b0381118282101715620005f857620005f86200043e565b604052825181526020928301519281019290925250919050565b60008060008060008060e087890312156200062c57600080fd5b86516001600160401b03808211156200064457600080fd5b620006528a838b01620004ad565b975060208901519150808211156200066957600080fd5b620006778a838b01620004ad565b96506040890151955060608901519150808211156200069557600080fd5b620006a38a838b0162000521565b9450620006b48a60808b01620005c0565b935060c0890151915080821115620006cb57600080fd5b50620006da89828a01620004ad565b9150509295509295509295565b600181811c90821680620006fc57607f821691505b6020821081036200071d57634e487b7160e01b600052602260045260246000fd5b50919050565b601f8211156200043957600081815260208120601f850160051c810160208610156200074c5750805b601f850160051c820191505b818110156200076d5782815560010162000758565b505050505050565b81516001600160401b038111156200079157620007916200043e565b620007a981620007a28454620006e7565b8462000723565b602080601f831160018114620007e15760008415620007c85750858301515b600019600386901b1c1916600185901b1785556200076d565b600085815260208120601f198616915b828110156200081257888601518255948401946001909101908401620007f1565b5085821015620008315787850151600019600388901b60f8161c191681555b5050505050600190811b01905550565b634e487b7160e01b600052603260045260246000fd5b634e487b7160e01b600052601160045260246000fd5b600181815b80851115620008ae57816000190482111562000892576200089262000857565b80851615620008a057918102915b93841c939080029062000872565b509250929050565b600082620008c7575060016200027f565b81620008d6575060006200027f565b8160018114620008ef5760028114620008fa576200091a565b60019150506200027f565b60ff8411156200090e576200090e62000857565b50506001821b6200027f565b5060208310610133831016604e8410600b84101617156200093f575081810a6200027f565b6200094b83836200086d565b806000190482111562000962576200096262000857565b029392505050565b60006200097b60ff841683620008b6565b9392505050565b80820281158282048414176200027f576200027f62000857565b600082620009ba57634e487b7160e01b600052601260045260246000fd5b500490565b808201808211156200027f576200027f62000857565b6020815260008251806020840152620009f681604085016020870162000487565b601f01601f19169190910160400192915050565b805160208083015191908110156200071d5760001960209190910360031b1b16919050565b60805160a05160c05160e051610100516101205161014051611f8162000a8a600039600061079401526000610769015260006111b30152600061118b015260006110e6015260006111100152600061113a0152611f816000f3fe608060405234801561001057600080fd5b50600436106101985760003560e01c80634df7e3d0116100e3578063a217fddf1161008c578063d505accf11610066578063d505accf14610392578063d547741f146103a5578063dd62ed3e146103b857600080fd5b8063a217fddf14610364578063a457c2d71461036c578063a9059cbb1461037f57600080fd5b806384b0196e116100bd57806384b0196e146102fb57806391d148541461031657806395d89b411461035c57600080fd5b80634df7e3d0146102aa57806370a08231146102b25780637ecebe00146102e857600080fd5b80632ba9fcd5116101455780633644e5151161011f5780633644e5151461027c57806336568abe14610284578063395093511461029757600080fd5b80632ba9fcd5146102355780632f2ff15d14610258578063313ce5671461026d57600080fd5b806318160ddd1161017657806318160ddd146101ed57806323b872dd146101ff578063248a9ca31461021257600080fd5b806301ffc9a71461019d57806306fdde03146101c5578063095ea7b3146101da575b600080fd5b6101b06101ab366004611a54565b6103fe565b60405190151581526020015b60405180910390f35b6101cd610497565b6040516101bc9190611b04565b6101b06101e8366004611b40565b610529565b6002545b6040519081526020016101bc565b6101b061020d366004611b6a565b610541565b6101f1610220366004611ba6565b60009081526009602052604090206001015490565b600a54600b54610243919082565b604080519283526020830191909152016101bc565b61026b610266366004611bbf565b610565565b005b604051601281526020016101bc565b6101f161058f565b61026b610292366004611bbf565b61059e565b6101b06102a5366004611b40565b610656565b6101cd6106a2565b6101f16102c0366004611beb565b73ffffffffffffffffffffffffffffffffffffffff1660009081526020819052604090205490565b6101f16102f6366004611beb565b610730565b61030361075b565b6040516101bc9796959493929190611c06565b6101b0610324366004611bbf565b600091825260096020908152604080842073ffffffffffffffffffffffffffffffffffffffff93909316845291905290205460ff1690565b6101cd610800565b6101f1600081565b6101b061037a366004611b40565b61080f565b6101b061038d366004611b40565b6108e0565b61026b6103a0366004611cc5565b6108ee565b61026b6103b3366004611bbf565b610aad565b6101f16103c6366004611d38565b73ffffffffffffffffffffffffffffffffffffffff918216600090815260016020908152604080832093909416825291909152205490565b60007fffffffff0000000000000000000000000000000000000000000000000000000082167f7965db0b00000000000000000000000000000000000000000000000000000000148061049157507f01ffc9a7000000000000000000000000000000000000000000000000000000007fffffffff000000000000000000000000000000000000000000000000000000008316145b92915050565b6060600380546104a690611d62565b80601f01602080910402602001604051908101604052809291908181526020018280546104d290611d62565b801561051f5780601f106104f45761010080835404028352916020019161051f565b820191906000526020600020905b81548152906001019060200180831161050257829003601f168201915b5050505050905090565b600033610537818585610ad2565b5060019392505050565b60003361054f858285610c85565b61055a858585610d5c565b506001949350505050565b60008281526009602052604090206001015461058081610fcb565b61058a8383610fd8565b505050565b60006105996110cc565b905090565b73ffffffffffffffffffffffffffffffffffffffff81163314610648576040517f08c379a000000000000000000000000000000000000000000000000000000000815260206004820152602f60248201527f416363657373436f6e74726f6c3a2063616e206f6e6c792072656e6f756e636560448201527f20726f6c657320666f722073656c66000000000000000000000000000000000060648201526084015b60405180910390fd5b6106528282611204565b5050565b33600081815260016020908152604080832073ffffffffffffffffffffffffffffffffffffffff87168452909152812054909190610537908290869061069d908790611dde565b610ad2565b600c80546106af90611d62565b80601f01602080910402602001604051908101604052809291908181526020018280546106db90611d62565b80156107285780601f106106fd57610100808354040283529160200191610728565b820191906000526020600020905b81548152906001019060200180831161070b57829003601f168201915b505050505081565b73ffffffffffffffffffffffffffffffffffffffff8116600090815260076020526040812054610491565b60006060808280808361078f7f000000000000000000000000000000000000000000000000000000000000000060056112bf565b6107ba7f000000000000000000000000000000000000000000000000000000000000000060066112bf565b604080516000808252602082019092527f0f000000000000000000000000000000000000000000000000000000000000009b939a50919850469750309650945092509050565b6060600480546104a690611d62565b33600081815260016020908152604080832073ffffffffffffffffffffffffffffffffffffffff87168452909152812054909190838110156108d3576040517f08c379a000000000000000000000000000000000000000000000000000000000815260206004820152602560248201527f45524332303a2064656372656173656420616c6c6f77616e63652062656c6f7760448201527f207a65726f000000000000000000000000000000000000000000000000000000606482015260840161063f565b61055a8286868403610ad2565b600033610537818585610d5c565b83421115610958576040517f08c379a000000000000000000000000000000000000000000000000000000000815260206004820152601d60248201527f45524332305065726d69743a206578706972656420646561646c696e65000000604482015260640161063f565b60007f6e71edae12b1b97f4d1f60370fef10105fa2faae0126114a169c64845d6126c98888886109878c61136a565b60408051602081019690965273ffffffffffffffffffffffffffffffffffffffff94851690860152929091166060840152608083015260a082015260c0810186905260e00160405160208183030381529060405280519060200120905060006109ef8261139f565b905060006109ff828787876113e7565b90508973ffffffffffffffffffffffffffffffffffffffff168173ffffffffffffffffffffffffffffffffffffffff1614610a96576040517f08c379a000000000000000000000000000000000000000000000000000000000815260206004820152601e60248201527f45524332305065726d69743a20696e76616c6964207369676e61747572650000604482015260640161063f565b610aa18a8a8a610ad2565b50505050505050505050565b600082815260096020526040902060010154610ac881610fcb565b61058a8383611204565b73ffffffffffffffffffffffffffffffffffffffff8316610b74576040517f08c379a0000000000000000000000000000000000000000000000000000000008152602060048201526024808201527f45524332303a20617070726f76652066726f6d20746865207a65726f2061646460448201527f7265737300000000000000000000000000000000000000000000000000000000606482015260840161063f565b73ffffffffffffffffffffffffffffffffffffffff8216610c17576040517f08c379a000000000000000000000000000000000000000000000000000000000815260206004820152602260248201527f45524332303a20617070726f766520746f20746865207a65726f20616464726560448201527f7373000000000000000000000000000000000000000000000000000000000000606482015260840161063f565b73ffffffffffffffffffffffffffffffffffffffff83811660008181526001602090815260408083209487168084529482529182902085905590518481527f8c5be1e5ebec7d5bd14f71427d1e84f3dd0314c0f7b2291e5b200ac8c7c3b925910160405180910390a3505050565b73ffffffffffffffffffffffffffffffffffffffff8381166000908152600160209081526040808320938616835292905220547fffffffffffffffffffffffffffffffffffffffffffffffffffffffffffffffff8114610d565781811015610d49576040517f08c379a000000000000000000000000000000000000000000000000000000000815260206004820152601d60248201527f45524332303a20696e73756666696369656e7420616c6c6f77616e6365000000604482015260640161063f565b610d568484848403610ad2565b50505050565b73ffffffffffffffffffffffffffffffffffffffff8316610dff576040517f08c379a000000000000000000000000000000000000000000000000000000000815260206004820152602560248201527f45524332303a207472616e736665722066726f6d20746865207a65726f20616460448201527f6472657373000000000000000000000000000000000000000000000000000000606482015260840161063f565b73ffffffffffffffffffffffffffffffffffffffff8216610ea2576040517f08c379a000000000000000000000000000000000000000000000000000000000815260206004820152602360248201527f45524332303a207472616e7366657220746f20746865207a65726f206164647260448201527f6573730000000000000000000000000000000000000000000000000000000000606482015260840161063f565b73ffffffffffffffffffffffffffffffffffffffff831660009081526020819052604090205481811015610f58576040517f08c379a000000000000000000000000000000000000000000000000000000000815260206004820152602660248201527f45524332303a207472616e7366657220616d6f756e742065786365656473206260448201527f616c616e63650000000000000000000000000000000000000000000000000000606482015260840161063f565b73ffffffffffffffffffffffffffffffffffffffff848116600081815260208181526040808320878703905593871680835291849020805487019055925185815290927fddf252ad1be2c89b69c2b068fc378daa952ba7f163c4a11628f55a4df523b3ef910160405180910390a3610d56565b610fd5813361140f565b50565b600082815260096020908152604080832073ffffffffffffffffffffffffffffffffffffffff8516845290915290205460ff1661065257600082815260096020908152604080832073ffffffffffffffffffffffffffffffffffffffff85168452909152902080547fffffffffffffffffffffffffffffffffffffffffffffffffffffffffffffff0016600117905561106e3390565b73ffffffffffffffffffffffffffffffffffffffff168173ffffffffffffffffffffffffffffffffffffffff16837f2f8788117e7eff1d82e926ec794901d17c78024a50270940304540a733656f0d60405160405180910390a45050565b60003073ffffffffffffffffffffffffffffffffffffffff7f00000000000000000000000000000000000000000000000000000000000000001614801561113257507f000000000000000000000000000000000000000000000000000000000000000046145b1561115c57507f000000000000000000000000000000000000000000000000000000000000000090565b610599604080517f8b73c3c69bb8fe3d512ecc4cf759cc79239f7b179b0ffacaa9a75d522b39400f60208201527f0000000000000000000000000000000000000000000000000000000000000000918101919091527f000000000000000000000000000000000000000000000000000000000000000060608201524660808201523060a082015260009060c00160405160208183030381529060405280519060200120905090565b600082815260096020908152604080832073ffffffffffffffffffffffffffffffffffffffff8516845290915290205460ff161561065257600082815260096020908152604080832073ffffffffffffffffffffffffffffffffffffffff8516808552925280832080547fffffffffffffffffffffffffffffffffffffffffffffffffffffffffffffff0016905551339285917ff6391f5c32d9c69d2a47ea670b442974b53935d1edc7fd64eb21e047a839171b9190a45050565b606060ff83146112d9576112d2836114c9565b9050610491565b8180546112e590611d62565b80601f016020809104026020016040519081016040528092919081815260200182805461131190611d62565b801561135e5780601f106113335761010080835404028352916020019161135e565b820191906000526020600020905b81548152906001019060200180831161134157829003601f168201915b50505050509050610491565b73ffffffffffffffffffffffffffffffffffffffff811660009081526007602052604090208054600181018255905b50919050565b60006104916113ac6110cc565b836040517f19010000000000000000000000000000000000000000000000000000000000008152600281019290925260228201526042902090565b60008060006113f887878787611508565b91509150611405816115f7565b5095945050505050565b600082815260096020908152604080832073ffffffffffffffffffffffffffffffffffffffff8516845290915290205460ff166106525761144f816117aa565b61145a8360206117c9565b60405160200161146b929190611e20565b604080517fffffffffffffffffffffffffffffffffffffffffffffffffffffffffffffffe0818403018152908290527f08c379a000000000000000000000000000000000000000000000000000000000825261063f91600401611b04565b606060006114d683611a13565b604080516020808252818301909252919250600091906020820181803683375050509182525060208101929092525090565b6000807f7fffffffffffffffffffffffffffffff5d576e7357a4501ddfe92f46681b20a083111561153f57506000905060036115ee565b6040805160008082526020820180845289905260ff881692820192909252606081018690526080810185905260019060a0016020604051602081039080840390855afa158015611593573d6000803e3d6000fd5b50506040517fffffffffffffffffffffffffffffffffffffffffffffffffffffffffffffffe0015191505073ffffffffffffffffffffffffffffffffffffffff81166115e7576000600192509250506115ee565b9150600090505b94509492505050565b600081600481111561160b5761160b611ea1565b036116135750565b600181600481111561162757611627611ea1565b0361168e576040517f08c379a000000000000000000000000000000000000000000000000000000000815260206004820152601860248201527f45434453413a20696e76616c6964207369676e61747572650000000000000000604482015260640161063f565b60028160048111156116a2576116a2611ea1565b03611709576040517f08c379a000000000000000000000000000000000000000000000000000000000815260206004820152601f60248201527f45434453413a20696e76616c6964207369676e6174757265206c656e67746800604482015260640161063f565b600381600481111561171d5761171d611ea1565b03610fd5576040517f08c379a000000000000000000000000000000000000000000000000000000000815260206004820152602260248201527f45434453413a20696e76616c6964207369676e6174757265202773272076616c60448201527f7565000000000000000000000000000000000000000000000000000000000000606482015260840161063f565b606061049173ffffffffffffffffffffffffffffffffffffffff831660145b606060006117d8836002611ed0565b6117e3906002611dde565b67ffffffffffffffff8111156117fb576117fb611df1565b6040519080825280601f01601f191660200182016040528015611825576020820181803683370190505b5090507f30000000000000000000000000000000000000000000000000000000000000008160008151811061185c5761185c611ee7565b60200101907effffffffffffffffffffffffffffffffffffffffffffffffffffffffffffff1916908160001a9053507f7800000000000000000000000000000000000000000000000000000000000000816001815181106118bf576118bf611ee7565b60200101907effffffffffffffffffffffffffffffffffffffffffffffffffffffffffffff1916908160001a90535060006118fb846002611ed0565b611906906001611dde565b90505b60018111156119a3577f303132333435363738396162636465660000000000000000000000000000000085600f166010811061194757611947611ee7565b1a60f81b82828151811061195d5761195d611ee7565b60200101907effffffffffffffffffffffffffffffffffffffffffffffffffffffffffffff1916908160001a90535060049490941c9361199c81611f16565b9050611909565b508315611a0c576040517f08c379a000000000000000000000000000000000000000000000000000000000815260206004820181905260248201527f537472696e67733a20686578206c656e67746820696e73756666696369656e74604482015260640161063f565b9392505050565b600060ff8216601f811115610491576040517fb3512b0c00000000000000000000000000000000000000000000000000000000815260040160405180910390fd5b600060208284031215611a6657600080fd5b81357fffffffff0000000000000000000000000000000000000000000000000000000081168114611a0c57600080fd5b60005b83811015611ab1578181015183820152602001611a99565b50506000910152565b60008151808452611ad2816020860160208601611a96565b601f017fffffffffffffffffffffffffffffffffffffffffffffffffffffffffffffffe0169290920160200192915050565b602081526000611a0c6020830184611aba565b803573ffffffffffffffffffffffffffffffffffffffff81168114611b3b57600080fd5b919050565b60008060408385031215611b5357600080fd5b611b5c83611b17565b946020939093013593505050565b600080600060608486031215611b7f57600080fd5b611b8884611b17565b9250611b9660208501611b17565b9150604084013590509250925092565b600060208284031215611bb857600080fd5b5035919050565b60008060408385031215611bd257600080fd5b82359150611be260208401611b17565b90509250929050565b600060208284031215611bfd57600080fd5b611a0c82611b17565b7fff00000000000000000000000000000000000000000000000000000000000000881681526000602060e081840152611c4260e084018a611aba565b8381036040850152611c54818a611aba565b6060850189905273ffffffffffffffffffffffffffffffffffffffff8816608086015260a0850187905284810360c0860152855180825283870192509083019060005b81811015611cb357835183529284019291840191600101611c97565b50909c9b505050505050505050505050565b600080600080600080600060e0888a031215611ce057600080fd5b611ce988611b17565b9650611cf760208901611b17565b95506040880135945060608801359350608088013560ff81168114611d1b57600080fd5b9699959850939692959460a0840135945060c09093013592915050565b60008060408385031215611d4b57600080fd5b611d5483611b17565b9150611be260208401611b17565b600181811c90821680611d7657607f821691505b602082108103611399577f4e487b7100000000000000000000000000000000000000000000000000000000600052602260045260246000fd5b7f4e487b7100000000000000000000000000000000000000000000000000000000600052601160045260246000fd5b8082018082111561049157610491611daf565b7f4e487b7100000000000000000000000000000000000000000000000000000000600052604160045260246000fd5b7f416363657373436f6e74726f6c3a206163636f756e7420000000000000000000815260008351611e58816017850160208801611a96565b7f206973206d697373696e6720726f6c65200000000000000000000000000000006017918401918201528351611e95816028840160208801611a96565b01602801949350505050565b7f4e487b7100000000000000000000000000000000000000000000000000000000600052602160045260246000fd5b808202811582820484141761049157610491611daf565b7f4e487b7100000000000000000000000000000000000000000000000000000000600052603260045260246000fd5b600081611f2557611f25611daf565b507fffffffffffffffffffffffffffffffffffffffffffffffffffffffffffffffff019056fea26469706673582212201ce6938e325f1d74a7b11c7b104d1d557c5f61dd1d54855c608d5499e5cd8b3964736f6c63430008150033",
  "linkReferences": {},
  "deployedLinkReferences": {}
}