{
  "_format": "hh-sol-artifact-1",
  "contractName": "CreateDeployer",
  "sourceName": "contracts/axelarnetwork/axelar-gmp-sdk-solidity/deploy/Create3.sol",
  "abi": [
    {
      "inputs": [
        {
          "internalType": "bytes",
          "name": "bytecode",
          "type": "bytes"
        }
      ],
      "name": "deploy",
      "outputs": [],
      "stateMutability": "nonpayable",
      "type": "function"
    }
  ],
  "bytecode": "0x608060405234801561001057600080fd5b50610193806100206000396000f3fe608060405234801561001057600080fd5b506004361061002a5760003560e01c80627743601461002f575b600080fd5b61004261003d36600461008e565b610044565b005b60008151602083016000f090508061005b57600080fd5b5050565b7f4e487b7100000000000000000000000000000000000000000000000000000000600052604160045260246000fd5b6000602082840312156100a057600080fd5b813567ffffffffffffffff808211156100b857600080fd5b818401915084601f8301126100cc57600080fd5b8135818111156100de576100de61005f565b604051601f82017fffffffffffffffffffffffffffffffffffffffffffffffffffffffffffffffe0908116603f011681019083821181831017156101245761012461005f565b8160405282815287602084870101111561013d57600080fd5b82602086016020830137600092810160200192909252509594505050505056fea2646970667358221220ecc24032bc744eda4ba2e0daa3966b0d4340695f92c197d5884cd2796a52f5b264736f6c63430008150033",
  "linkReferences": {},
  "deployedLinkReferences": {}
}